{
  "contractName": "Aadhaar",
  "abi": [
    {
      "inputs": [],
      "stateMutability": "nonpayable",
      "type": "constructor"
    },
    {
      "anonymous": false,
      "inputs": [
        {
          "indexed": true,
          "internalType": "uint256",
          "name": "tokenId",
          "type": "uint256"
        },
        {
          "indexed": false,
          "internalType": "string",
          "name": "Name",
          "type": "string"
        },
        {
          "indexed": false,
          "internalType": "address",
          "name": "Owner",
          "type": "address"
        },
        {
          "indexed": false,
          "internalType": "uint256",
          "name": "Addhaar_NO",
          "type": "uint256"
        }
      ],
      "name": "Aadhaar_Created",
      "type": "event"
    },
    {
      "anonymous": false,
      "inputs": [
        {
          "indexed": true,
          "internalType": "address",
          "name": "owner",
          "type": "address"
        },
        {
          "indexed": true,
          "internalType": "address",
          "name": "approved",
          "type": "address"
        },
        {
          "indexed": true,
          "internalType": "uint256",
          "name": "tokenId",
          "type": "uint256"
        }
      ],
      "name": "Approval",
      "type": "event"
    },
    {
      "anonymous": false,
      "inputs": [
        {
          "indexed": true,
          "internalType": "address",
          "name": "owner",
          "type": "address"
        },
        {
          "indexed": true,
          "internalType": "address",
          "name": "operator",
          "type": "address"
        },
        {
          "indexed": false,
          "internalType": "bool",
          "name": "approved",
          "type": "bool"
        }
      ],
      "name": "ApprovalForAll",
      "type": "event"
    },
    {
      "anonymous": false,
      "inputs": [
        {
          "indexed": true,
          "internalType": "address",
          "name": "previousOwner",
          "type": "address"
        },
        {
          "indexed": true,
          "internalType": "address",
          "name": "newOwner",
          "type": "address"
        }
      ],
      "name": "OwnershipTransferred",
      "type": "event"
    },
    {
      "anonymous": false,
      "inputs": [
        {
          "indexed": true,
          "internalType": "address",
          "name": "from",
          "type": "address"
        },
        {
          "indexed": true,
          "internalType": "address",
          "name": "to",
          "type": "address"
        },
        {
          "indexed": true,
          "internalType": "uint256",
          "name": "tokenId",
          "type": "uint256"
        }
      ],
      "name": "Transfer",
      "type": "event"
    },
    {
      "inputs": [
        {
          "internalType": "address",
          "name": "to",
          "type": "address"
        },
        {
          "internalType": "uint256",
          "name": "tokenId",
          "type": "uint256"
        }
      ],
      "name": "approve",
      "outputs": [],
      "stateMutability": "nonpayable",
      "type": "function"
    },
    {
      "inputs": [
        {
          "internalType": "address",
          "name": "owner",
          "type": "address"
        }
      ],
      "name": "balanceOf",
      "outputs": [
        {
          "internalType": "uint256",
          "name": "",
          "type": "uint256"
        }
      ],
      "stateMutability": "view",
      "type": "function",
      "constant": true
    },
    {
      "inputs": [
        {
          "internalType": "address",
          "name": "",
          "type": "address"
        }
      ],
      "name": "count_Of_Created_Nfts",
      "outputs": [
        {
          "internalType": "uint256",
          "name": "",
          "type": "uint256"
        }
      ],
      "stateMutability": "view",
      "type": "function",
      "constant": true
    },
    {
      "inputs": [
        {
          "internalType": "address",
          "name": "",
          "type": "address"
        },
        {
          "internalType": "uint256",
          "name": "",
          "type": "uint256"
        }
      ],
      "name": "creator_Mapped_Token",
      "outputs": [
        {
          "internalType": "uint256",
          "name": "",
          "type": "uint256"
        }
      ],
      "stateMutability": "view",
      "type": "function",
      "constant": true
    },
    {
      "inputs": [
        {
          "internalType": "uint256",
          "name": "tokenId",
          "type": "uint256"
        }
      ],
      "name": "getApproved",
      "outputs": [
        {
          "internalType": "address",
          "name": "",
          "type": "address"
        }
      ],
      "stateMutability": "view",
      "type": "function",
      "constant": true
    },
    {
      "inputs": [
        {
          "internalType": "address",
          "name": "owner",
          "type": "address"
        },
        {
          "internalType": "address",
          "name": "operator",
          "type": "address"
        }
      ],
      "name": "isApprovedForAll",
      "outputs": [
        {
          "internalType": "bool",
          "name": "",
          "type": "bool"
        }
      ],
      "stateMutability": "view",
      "type": "function",
      "constant": true
    },
    {
      "inputs": [],
      "name": "name",
      "outputs": [
        {
          "internalType": "string",
          "name": "",
          "type": "string"
        }
      ],
      "stateMutability": "view",
      "type": "function",
      "constant": true
    },
    {
      "inputs": [],
      "name": "owner",
      "outputs": [
        {
          "internalType": "address",
          "name": "",
          "type": "address"
        }
      ],
      "stateMutability": "view",
      "type": "function",
      "constant": true
    },
    {
      "inputs": [
        {
          "internalType": "uint256",
          "name": "tokenId",
          "type": "uint256"
        }
      ],
      "name": "ownerOf",
      "outputs": [
        {
          "internalType": "address",
          "name": "",
          "type": "address"
        }
      ],
      "stateMutability": "view",
      "type": "function",
      "constant": true
    },
    {
      "inputs": [],
      "name": "renounceOwnership",
      "outputs": [],
      "stateMutability": "nonpayable",
      "type": "function"
    },
    {
      "inputs": [
        {
          "internalType": "address",
          "name": "from",
          "type": "address"
        },
        {
          "internalType": "address",
          "name": "to",
          "type": "address"
        },
        {
          "internalType": "uint256",
          "name": "tokenId",
          "type": "uint256"
        }
      ],
      "name": "safeTransferFrom",
      "outputs": [],
      "stateMutability": "nonpayable",
      "type": "function"
    },
    {
      "inputs": [
        {
          "internalType": "address",
          "name": "from",
          "type": "address"
        },
        {
          "internalType": "address",
          "name": "to",
          "type": "address"
        },
        {
          "internalType": "uint256",
          "name": "tokenId",
          "type": "uint256"
        },
        {
          "internalType": "bytes",
          "name": "data",
          "type": "bytes"
        }
      ],
      "name": "safeTransferFrom",
      "outputs": [],
      "stateMutability": "nonpayable",
      "type": "function"
    },
    {
      "inputs": [
        {
          "internalType": "address",
          "name": "operator",
          "type": "address"
        },
        {
          "internalType": "bool",
          "name": "approved",
          "type": "bool"
        }
      ],
      "name": "setApprovalForAll",
      "outputs": [],
      "stateMutability": "nonpayable",
      "type": "function"
    },
    {
      "inputs": [
        {
          "internalType": "bytes4",
          "name": "interfaceId",
          "type": "bytes4"
        }
      ],
      "name": "supportsInterface",
      "outputs": [
        {
          "internalType": "bool",
          "name": "",
          "type": "bool"
        }
      ],
      "stateMutability": "view",
      "type": "function",
      "constant": true
    },
    {
      "inputs": [],
      "name": "symbol",
      "outputs": [
        {
          "internalType": "string",
          "name": "",
          "type": "string"
        }
      ],
      "stateMutability": "view",
      "type": "function",
      "constant": true
    },
    {
      "inputs": [
        {
          "internalType": "address",
          "name": "from",
          "type": "address"
        },
        {
          "internalType": "address",
          "name": "to",
          "type": "address"
        },
        {
          "internalType": "uint256",
          "name": "tokenId",
          "type": "uint256"
        }
      ],
      "name": "transferFrom",
      "outputs": [],
      "stateMutability": "nonpayable",
      "type": "function"
    },
    {
      "inputs": [
        {
          "internalType": "address",
          "name": "newOwner",
          "type": "address"
        }
      ],
      "name": "transferOwnership",
      "outputs": [],
      "stateMutability": "nonpayable",
      "type": "function"
    },
    {
      "inputs": [],
      "name": "totalSupply",
      "outputs": [
        {
          "internalType": "uint256",
          "name": "",
          "type": "uint256"
        }
      ],
      "stateMutability": "view",
      "type": "function",
      "constant": true
    },
    {
      "inputs": [
        {
          "internalType": "uint256",
          "name": "index",
          "type": "uint256"
        }
      ],
      "name": "tokenByIndex",
      "outputs": [
        {
          "internalType": "uint256",
          "name": "",
          "type": "uint256"
        }
      ],
      "stateMutability": "view",
      "type": "function",
      "constant": true
    },
    {
      "inputs": [
        {
          "internalType": "string",
          "name": "uri",
          "type": "string"
        }
      ],
      "name": "tokenURIExists",
      "outputs": [
        {
          "internalType": "bool",
          "name": "",
          "type": "bool"
        }
      ],
      "stateMutability": "view",
      "type": "function",
      "constant": true
    },
    {
      "inputs": [
        {
          "internalType": "uint256",
          "name": "tokenId",
          "type": "uint256"
        }
      ],
      "name": "getAadhaar",
      "outputs": [
        {
          "components": [
            {
              "internalType": "uint256",
              "name": "tokenId",
              "type": "uint256"
            },
            {
              "internalType": "string",
              "name": "Name",
              "type": "string"
            },
            {
              "internalType": "string",
              "name": "DOB",
              "type": "string"
            },
            {
              "internalType": "string",
              "name": "Sex",
              "type": "string"
            },
            {
              "internalType": "string",
              "name": "Address",
              "type": "string"
            },
            {
              "internalType": "address",
              "name": "Web3_Address",
              "type": "address"
            },
            {
              "internalType": "uint256",
              "name": "Aadhaar_NO",
              "type": "uint256"
            }
          ],
          "internalType": "struct Aadhaar.Aadhaar_Data",
          "name": "",
          "type": "tuple"
        }
      ],
      "stateMutability": "view",
      "type": "function",
      "constant": true
    },
    {
      "inputs": [],
      "name": "createdAadhaarCount",
      "outputs": [
        {
          "internalType": "uint256",
          "name": "",
          "type": "uint256"
        }
      ],
      "stateMutability": "view",
      "type": "function",
      "constant": true
    },
    {
      "inputs": [
        {
          "internalType": "address",
          "name": "creator",
          "type": "address"
        },
        {
          "internalType": "uint256",
          "name": "index",
          "type": "uint256"
        }
      ],
      "name": "tokenOfCreatorByIndex",
      "outputs": [
        {
          "internalType": "uint256",
          "name": "",
          "type": "uint256"
        }
      ],
      "stateMutability": "view",
      "type": "function",
      "constant": true
    },
    {
      "inputs": [
        {
          "internalType": "address",
          "name": "to",
          "type": "address"
        },
        {
          "internalType": "string",
          "name": "uri",
          "type": "string"
        },
        {
          "internalType": "string",
          "name": "Name",
          "type": "string"
        },
        {
          "internalType": "string",
          "name": "DOB",
          "type": "string"
        },
        {
          "internalType": "string",
          "name": "Sex",
          "type": "string"
        },
        {
          "internalType": "string",
          "name": "Address",
          "type": "string"
        },
        {
          "internalType": "uint256",
          "name": "Aadhaar_NO",
          "type": "uint256"
        }
      ],
      "name": "safeMint",
      "outputs": [],
      "stateMutability": "nonpayable",
      "type": "function"
    },
    {
      "inputs": [],
      "name": "getAllAadhaarNfts",
      "outputs": [
        {
          "components": [
            {
              "internalType": "uint256",
              "name": "tokenId",
              "type": "uint256"
            },
            {
              "internalType": "string",
              "name": "Name",
              "type": "string"
            },
            {
              "internalType": "string",
              "name": "DOB",
              "type": "string"
            },
            {
              "internalType": "string",
              "name": "Sex",
              "type": "string"
            },
            {
              "internalType": "string",
              "name": "Address",
              "type": "string"
            },
            {
              "internalType": "address",
              "name": "Web3_Address",
              "type": "address"
            },
            {
              "internalType": "uint256",
              "name": "Aadhaar_NO",
              "type": "uint256"
            }
          ],
          "internalType": "struct Aadhaar.Aadhaar_Data[]",
          "name": "",
          "type": "tuple[]"
        }
      ],
      "stateMutability": "view",
      "type": "function",
      "constant": true
    },
    {
      "inputs": [],
      "name": "getCreatedNfts",
      "outputs": [
        {
          "components": [
            {
              "internalType": "uint256",
              "name": "tokenId",
              "type": "uint256"
            },
            {
              "internalType": "string",
              "name": "Name",
              "type": "string"
            },
            {
              "internalType": "string",
              "name": "DOB",
              "type": "string"
            },
            {
              "internalType": "string",
              "name": "Sex",
              "type": "string"
            },
            {
              "internalType": "string",
              "name": "Address",
              "type": "string"
            },
            {
              "internalType": "address",
              "name": "Web3_Address",
              "type": "address"
            },
            {
              "internalType": "uint256",
              "name": "Aadhaar_NO",
              "type": "uint256"
            }
          ],
          "internalType": "struct Aadhaar.Aadhaar_Data[]",
          "name": "",
          "type": "tuple[]"
        }
      ],
      "stateMutability": "view",
      "type": "function",
      "constant": true
    },
    {
      "inputs": [
        {
          "internalType": "uint256",
          "name": "tokenId",
          "type": "uint256"
        }
      ],
      "name": "tokenURI",
      "outputs": [
        {
          "internalType": "string",
          "name": "",
          "type": "string"
        }
      ],
      "stateMutability": "view",
      "type": "function",
      "constant": true
    }
  ],
  "bytecode": "0x60806040523480156200001157600080fd5b506040518060400160405280600781526020017f41616468616172000000000000000000000000000000000000000000000000008152506040518060400160405280600581526020017f554944414900000000000000000000000000000000000000000000000000000081525081600090816200008f91906200046a565b508060019081620000a191906200046a565b505050620000c4620000b86200012260201b60201c565b6200012a60201b60201c565b6001601060003373ffffffffffffffffffffffffffffffffffffffff1673ffffffffffffffffffffffffffffffffffffffff16815260200190815260200160002060006101000a81548160ff02191690831515021790555062000551565b600033905090565b6000600760009054906101000a900473ffffffffffffffffffffffffffffffffffffffff16905081600760006101000a81548173ffffffffffffffffffffffffffffffffffffffff021916908373ffffffffffffffffffffffffffffffffffffffff1602179055508173ffffffffffffffffffffffffffffffffffffffff168173ffffffffffffffffffffffffffffffffffffffff167f8be0079c531659141344cd1fd0a4f28419497f9722a3daafe3b4186f6b6457e060405160405180910390a35050565b600081519050919050565b7f4e487b7100000000000000000000000000000000000000000000000000000000600052604160045260246000fd5b7f4e487b7100000000000000000000000000000000000000000000000000000000600052602260045260246000fd5b600060028204905060018216806200027257607f821691505b6020821081036200028857620002876200022a565b5b50919050565b60008190508160005260206000209050919050565b60006020601f8301049050919050565b600082821b905092915050565b600060088302620002f27fffffffffffffffffffffffffffffffffffffffffffffffffffffffffffffffff82620002b3565b620002fe8683620002b3565b95508019841693508086168417925050509392505050565b6000819050919050565b6000819050919050565b60006200034b620003456200033f8462000316565b62000320565b62000316565b9050919050565b6000819050919050565b62000367836200032a565b6200037f620003768262000352565b848454620002c0565b825550505050565b600090565b6200039662000387565b620003a38184846200035c565b505050565b5b81811015620003cb57620003bf6000826200038c565b600181019050620003a9565b5050565b601f8211156200041a57620003e4816200028e565b620003ef84620002a3565b81016020851015620003ff578190505b620004176200040e85620002a3565b830182620003a8565b50505b505050565b600082821c905092915050565b60006200043f600019846008026200041f565b1980831691505092915050565b60006200045a83836200042c565b9150826002028217905092915050565b6200047582620001f0565b67ffffffffffffffff811115620004915762000490620001fb565b5b6200049d825462000259565b620004aa828285620003cf565b600060209050601f831160018114620004e25760008415620004cd578287015190505b620004d985826200044c565b86555062000549565b601f198416620004f2866200028e565b60005b828110156200051c57848901518255600182019150602085019450602081019050620004f5565b868310156200053c578489015162000538601f8916826200042c565b8355505b6001600288020188555050505b505050505050565b6149fc80620005616000396000f3fe608060405234801561001057600080fd5b50600436106101a95760003560e01c80636352211e116100f9578063a22cb46511610097578063c87b56dd11610071578063c87b56dd146104f4578063e7a95cbe14610524578063e985e9c514610542578063f2fde38b14610572576101a9565b8063a22cb4651461048c578063b88d4fde146104a8578063b98ab65f146104c4576101a9565b80637c543541116100d35780637c543541146104025780638da5cb5b14610420578063917654351461043e57806395d89b411461046e576101a9565b80636352211e1461039857806370a08231146103c8578063715018a6146103f8576101a9565b806342842e0e116101665780634f6ccce7116101405780634f6ccce7146102ea5780634fc092751461031a5780635a837cd91461034a57806361cd33ad14610368576101a9565b806342842e0e1461028257806343d32ae71461029e578063470a73e3146102ce576101a9565b806301ffc9a7146101ae57806306fdde03146101de578063081812fc146101fc578063095ea7b31461022c57806318160ddd1461024857806323b872dd14610266575b600080fd5b6101c860048036038101906101c391906130d7565b61058e565b6040516101d5919061311f565b60405180910390f35b6101e6610670565b6040516101f391906131ca565b60405180910390f35b61021660048036038101906102119190613222565b610702565b6040516102239190613290565b60405180910390f35b610246600480360381019061024191906132d7565b610748565b005b61025061085f565b60405161025d9190613326565b60405180910390f35b610280600480360381019061027b9190613341565b61086c565b005b61029c60048036038101906102979190613341565b6108cc565b005b6102b860048036038101906102b391906134c9565b6108ec565b6040516102c5919061311f565b60405180910390f35b6102e860048036038101906102e39190613512565b610928565b005b61030460048036038101906102ff9190613222565b610cbd565b6040516103119190613326565b60405180910390f35b610334600480360381019061032f91906132d7565b610d2e565b6040516103419190613326565b60405180910390f35b610352610d89565b60405161035f919061381b565b60405180910390f35b610382600480360381019061037d91906132d7565b611132565b60405161038f9190613326565b60405180910390f35b6103b260048036038101906103ad9190613222565b611157565b6040516103bf9190613290565b60405180910390f35b6103e260048036038101906103dd919061383d565b6111dd565b6040516103ef9190613326565b60405180910390f35b610400611294565b005b61040a6112a8565b6040516104179190613326565b60405180910390f35b6104286112b9565b6040516104359190613290565b60405180910390f35b6104586004803603810190610453919061383d565b6112e3565b6040516104659190613326565b60405180910390f35b6104766112fb565b60405161048391906131ca565b60405180910390f35b6104a660048036038101906104a19190613896565b61138d565b005b6104c260048036038101906104bd9190613977565b6113a3565b005b6104de60048036038101906104d99190613222565b611405565b6040516104eb9190613aab565b60405180910390f35b61050e60048036038101906105099190613222565b6116e4565b60405161051b91906131ca565b60405180910390f35b61052c6116f6565b604051610539919061381b565b60405180910390f35b61055c60048036038101906105579190613acd565b611abe565b604051610569919061311f565b60405180910390f35b61058c6004803603810190610587919061383d565b611b52565b005b60007f80ac58cd000000000000000000000000000000000000000000000000000000007bffffffffffffffffffffffffffffffffffffffffffffffffffffffff1916827bffffffffffffffffffffffffffffffffffffffffffffffffffffffff1916148061065957507f5b5e139f000000000000000000000000000000000000000000000000000000007bffffffffffffffffffffffffffffffffffffffffffffffffffffffff1916827bffffffffffffffffffffffffffffffffffffffffffffffffffffffff1916145b80610669575061066882611bd5565b5b9050919050565b60606000805461067f90613b3c565b80601f01602080910402602001604051908101604052809291908181526020018280546106ab90613b3c565b80156106f85780601f106106cd576101008083540402835291602001916106f8565b820191906000526020600020905b8154815290600101906020018083116106db57829003601f168201915b5050505050905090565b600061070d82611c3f565b6004600083815260200190815260200160002060009054906101000a900473ffffffffffffffffffffffffffffffffffffffff169050919050565b600061075382611157565b90508073ffffffffffffffffffffffffffffffffffffffff168373ffffffffffffffffffffffffffffffffffffffff16036107c3576040517f08c379a00000000000000000000000000000000000000000000000000000000081526004016107ba90613bdf565b60405180910390fd5b8073ffffffffffffffffffffffffffffffffffffffff166107e2611c8a565b73ffffffffffffffffffffffffffffffffffffffff16148061081157506108108161080b611c8a565b611abe565b5b610850576040517f08c379a000000000000000000000000000000000000000000000000000000000815260040161084790613c71565b60405180910390fd5b61085a8383611c92565b505050565b6000601180549050905090565b61087d610877611c8a565b82611d4b565b6108bc576040517f08c379a00000000000000000000000000000000000000000000000000000000081526004016108b390613d03565b60405180910390fd5b6108c7838383611de0565b505050565b6108e7838383604051806020016040528060008152506113a3565b505050565b600060011515600a836040516109029190613d5f565b908152602001604051809103902060009054906101000a900460ff161515149050919050565b6109306120d9565b610939866108ec565b15610979576040517f08c379a000000000000000000000000000000000000000000000000000000000815260040161097090613dc2565b60405180910390fd5b601060003373ffffffffffffffffffffffffffffffffffffffff1673ffffffffffffffffffffffffffffffffffffffff16815260200190815260200160002060009054906101000a900460ff16610a05576040517f08c379a00000000000000000000000000000000000000000000000000000000081526004016109fc90613e54565b60405180910390fd5b6000610a116008612157565b9050610a1d6008612165565b610a276009612165565b610a31888261217b565b610a3b8188612199565b6001600a88604051610a4d9190613d5f565b908152602001604051809103902060006101000a81548160ff021916908315150217905550610a8188828888888888612206565b87600c60008a73ffffffffffffffffffffffffffffffffffffffff1673ffffffffffffffffffffffffffffffffffffffff16815260200190815260200160002060050160006101000a81548173ffffffffffffffffffffffffffffffffffffffff021916908373ffffffffffffffffffffffffffffffffffffffff160217905550610b108187878787876123dd565b87600b600083815260200190815260200160002060050160006101000a81548173ffffffffffffffffffffffffffffffffffffffff021916908373ffffffffffffffffffffffffffffffffffffffff1602179055506011819080600181540180825580915050600190039060005260206000200160009091909190915055600e60003373ffffffffffffffffffffffffffffffffffffffff1673ffffffffffffffffffffffffffffffffffffffff1681526020019081526020016000206000815480929190610bde90613ea3565b919050555080600d60003373ffffffffffffffffffffffffffffffffffffffff1673ffffffffffffffffffffffffffffffffffffffff1681526020019081526020016000206000600e60003373ffffffffffffffffffffffffffffffffffffffff1673ffffffffffffffffffffffffffffffffffffffff16815260200190815260200160002054815260200190815260200160002081905550807f960319acb7b068ed47ba44769cfb12df8d72d711f29c2eac16bae5dcc1980353878a85604051610cab93929190613eeb565b60405180910390a25050505050505050565b6000610cc761085f565b8210610d08576040517f08c379a0000000000000000000000000000000000000000000000000000000008152600401610cff90613f75565b60405180910390fd5b60118281548110610d1c57610d1b613f95565b5b90600052602060002001549050919050565b6000600d60008473ffffffffffffffffffffffffffffffffffffffff1673ffffffffffffffffffffffffffffffffffffffff168152602001908152602001600020600083815260200190815260200160002054905092915050565b60606000610d9561085f565b9050600080610da46009612157565b67ffffffffffffffff811115610dbd57610dbc61339e565b5b604051908082528060200260200182016040528015610df657816020015b610de3613018565b815260200190600190039081610ddb5790505b50905060005b83811015611128576000610e0f82610cbd565b90506000600b60008381526020019081526020016000209050806040518060e001604052908160008201548152602001600182018054610e4e90613b3c565b80601f0160208091040260200160405190810160405280929190818152602001828054610e7a90613b3c565b8015610ec75780601f10610e9c57610100808354040283529160200191610ec7565b820191906000526020600020905b815481529060010190602001808311610eaa57829003601f168201915b50505050508152602001600282018054610ee090613b3c565b80601f0160208091040260200160405190810160405280929190818152602001828054610f0c90613b3c565b8015610f595780601f10610f2e57610100808354040283529160200191610f59565b820191906000526020600020905b815481529060010190602001808311610f3c57829003601f168201915b50505050508152602001600382018054610f7290613b3c565b80601f0160208091040260200160405190810160405280929190818152602001828054610f9e90613b3c565b8015610feb5780601f10610fc057610100808354040283529160200191610feb565b820191906000526020600020905b815481529060010190602001808311610fce57829003601f168201915b5050505050815260200160048201805461100490613b3c565b80601f016020809104026020016040519081016040528092919081815260200182805461103090613b3c565b801561107d5780601f106110525761010080835404028352916020019161107d565b820191906000526020600020905b81548152906001019060200180831161106057829003601f168201915b505050505081526020016005820160009054906101000a900473ffffffffffffffffffffffffffffffffffffffff1673ffffffffffffffffffffffffffffffffffffffff1673ffffffffffffffffffffffffffffffffffffffff1681526020016006820154815250508486815181106110f9576110f8613f95565b5b60200260200101819052506001856111119190613fc4565b94505050808061112090613ea3565b915050610dfc565b5080935050505090565b600d602052816000526040600020602052806000526040600020600091509150505481565b600080611163836124ab565b9050600073ffffffffffffffffffffffffffffffffffffffff168173ffffffffffffffffffffffffffffffffffffffff16036111d4576040517f08c379a00000000000000000000000000000000000000000000000000000000081526004016111cb90614044565b60405180910390fd5b80915050919050565b60008073ffffffffffffffffffffffffffffffffffffffff168273ffffffffffffffffffffffffffffffffffffffff160361124d576040517f08c379a0000000000000000000000000000000000000000000000000000000008152600401611244906140d6565b60405180910390fd5b600360008373ffffffffffffffffffffffffffffffffffffffff1673ffffffffffffffffffffffffffffffffffffffff168152602001908152602001600020549050919050565b61129c6120d9565b6112a660006124e8565b565b60006112b46009612157565b905090565b6000600760009054906101000a900473ffffffffffffffffffffffffffffffffffffffff16905090565b600e6020528060005260406000206000915090505481565b60606001805461130a90613b3c565b80601f016020809104026020016040519081016040528092919081815260200182805461133690613b3c565b80156113835780601f1061135857610100808354040283529160200191611383565b820191906000526020600020905b81548152906001019060200180831161136657829003601f168201915b5050505050905090565b61139f611398611c8a565b83836125ae565b5050565b6113b46113ae611c8a565b83611d4b565b6113f3576040517f08c379a00000000000000000000000000000000000000000000000000000000081526004016113ea90613d03565b60405180910390fd5b6113ff8484848461271a565b50505050565b61140d613018565b600b60008381526020019081526020016000206040518060e00160405290816000820154815260200160018201805461144590613b3c565b80601f016020809104026020016040519081016040528092919081815260200182805461147190613b3c565b80156114be5780601f10611493576101008083540402835291602001916114be565b820191906000526020600020905b8154815290600101906020018083116114a157829003601f168201915b505050505081526020016002820180546114d790613b3c565b80601f016020809104026020016040519081016040528092919081815260200182805461150390613b3c565b80156115505780601f1061152557610100808354040283529160200191611550565b820191906000526020600020905b81548152906001019060200180831161153357829003601f168201915b5050505050815260200160038201805461156990613b3c565b80601f016020809104026020016040519081016040528092919081815260200182805461159590613b3c565b80156115e25780601f106115b7576101008083540402835291602001916115e2565b820191906000526020600020905b8154815290600101906020018083116115c557829003601f168201915b505050505081526020016004820180546115fb90613b3c565b80601f016020809104026020016040519081016040528092919081815260200182805461162790613b3c565b80156116745780601f1061164957610100808354040283529160200191611674565b820191906000526020600020905b81548152906001019060200180831161165757829003601f168201915b505050505081526020016005820160009054906101000a900473ffffffffffffffffffffffffffffffffffffffff1673ffffffffffffffffffffffffffffffffffffffff1673ffffffffffffffffffffffffffffffffffffffff1681526020016006820154815250509050919050565b60606116ef82612776565b9050919050565b60606000600e60003373ffffffffffffffffffffffffffffffffffffffff1673ffffffffffffffffffffffffffffffffffffffff16815260200190815260200160002054905060008167ffffffffffffffff8111156117585761175761339e565b5b60405190808252806020026020018201604052801561179157816020015b61177e613018565b8152602001906001900390816117765790505b50905060005b82811015611ab55760006117ab3383610d2e565b90506000600b60008381526020019081526020016000209050806040518060e0016040529081600082015481526020016001820180546117ea90613b3c565b80601f016020809104026020016040519081016040528092919081815260200182805461181690613b3c565b80156118635780601f1061183857610100808354040283529160200191611863565b820191906000526020600020905b81548152906001019060200180831161184657829003601f168201915b5050505050815260200160028201805461187c90613b3c565b80601f01602080910402602001604051908101604052809291908181526020018280546118a890613b3c565b80156118f55780601f106118ca576101008083540402835291602001916118f5565b820191906000526020600020905b8154815290600101906020018083116118d857829003601f168201915b5050505050815260200160038201805461190e90613b3c565b80601f016020809104026020016040519081016040528092919081815260200182805461193a90613b3c565b80156119875780601f1061195c57610100808354040283529160200191611987565b820191906000526020600020905b81548152906001019060200180831161196a57829003601f168201915b505050505081526020016004820180546119a090613b3c565b80601f01602080910402602001604051908101604052809291908181526020018280546119cc90613b3c565b8015611a195780601f106119ee57610100808354040283529160200191611a19565b820191906000526020600020905b8154815290600101906020018083116119fc57829003601f168201915b505050505081526020016005820160009054906101000a900473ffffffffffffffffffffffffffffffffffffffff1673ffffffffffffffffffffffffffffffffffffffff1673ffffffffffffffffffffffffffffffffffffffff168152602001600682015481525050848481518110611a9557611a94613f95565b5b602002602001018190525050508080611aad90613ea3565b915050611797565b50809250505090565b6000600560008473ffffffffffffffffffffffffffffffffffffffff1673ffffffffffffffffffffffffffffffffffffffff16815260200190815260200160002060008373ffffffffffffffffffffffffffffffffffffffff1673ffffffffffffffffffffffffffffffffffffffff16815260200190815260200160002060009054906101000a900460ff16905092915050565b611b5a6120d9565b600073ffffffffffffffffffffffffffffffffffffffff168173ffffffffffffffffffffffffffffffffffffffff1603611bc9576040517f08c379a0000000000000000000000000000000000000000000000000000000008152600401611bc090614168565b60405180910390fd5b611bd2816124e8565b50565b60007f01ffc9a7000000000000000000000000000000000000000000000000000000007bffffffffffffffffffffffffffffffffffffffffffffffffffffffff1916827bffffffffffffffffffffffffffffffffffffffffffffffffffffffff1916149050919050565b611c4881612888565b611c87576040517f08c379a0000000000000000000000000000000000000000000000000000000008152600401611c7e90614044565b60405180910390fd5b50565b600033905090565b816004600083815260200190815260200160002060006101000a81548173ffffffffffffffffffffffffffffffffffffffff021916908373ffffffffffffffffffffffffffffffffffffffff160217905550808273ffffffffffffffffffffffffffffffffffffffff16611d0583611157565b73ffffffffffffffffffffffffffffffffffffffff167f8c5be1e5ebec7d5bd14f71427d1e84f3dd0314c0f7b2291e5b200ac8c7c3b92560405160405180910390a45050565b600080611d5783611157565b90508073ffffffffffffffffffffffffffffffffffffffff168473ffffffffffffffffffffffffffffffffffffffff161480611d995750611d988185611abe565b5b80611dd757508373ffffffffffffffffffffffffffffffffffffffff16611dbf84610702565b73ffffffffffffffffffffffffffffffffffffffff16145b91505092915050565b8273ffffffffffffffffffffffffffffffffffffffff16611e0082611157565b73ffffffffffffffffffffffffffffffffffffffff1614611e56576040517f08c379a0000000000000000000000000000000000000000000000000000000008152600401611e4d906141fa565b60405180910390fd5b600073ffffffffffffffffffffffffffffffffffffffff168273ffffffffffffffffffffffffffffffffffffffff1603611ec5576040517f08c379a0000000000000000000000000000000000000000000000000000000008152600401611ebc9061428c565b60405180910390fd5b611ed283838360016128c9565b8273ffffffffffffffffffffffffffffffffffffffff16611ef282611157565b73ffffffffffffffffffffffffffffffffffffffff1614611f48576040517f08c379a0000000000000000000000000000000000000000000000000000000008152600401611f3f906141fa565b60405180910390fd5b6004600082815260200190815260200160002060006101000a81549073ffffffffffffffffffffffffffffffffffffffff02191690556001600360008573ffffffffffffffffffffffffffffffffffffffff1673ffffffffffffffffffffffffffffffffffffffff168152602001908152602001600020600082825403925050819055506001600360008473ffffffffffffffffffffffffffffffffffffffff1673ffffffffffffffffffffffffffffffffffffffff16815260200190815260200160002060008282540192505081905550816002600083815260200190815260200160002060006101000a81548173ffffffffffffffffffffffffffffffffffffffff021916908373ffffffffffffffffffffffffffffffffffffffff160217905550808273ffffffffffffffffffffffffffffffffffffffff168473ffffffffffffffffffffffffffffffffffffffff167fddf252ad1be2c89b69c2b068fc378daa952ba7f163c4a11628f55a4df523b3ef60405160405180910390a46120d4838383600161294a565b505050565b6120e1611c8a565b73ffffffffffffffffffffffffffffffffffffffff166120ff6112b9565b73ffffffffffffffffffffffffffffffffffffffff1614612155576040517f08c379a000000000000000000000000000000000000000000000000000000000815260040161214c906142f8565b60405180910390fd5b565b600081600001549050919050565b6001816000016000828254019250508190555050565b612195828260405180602001604052806000815250612950565b5050565b6121a282612888565b6121e1576040517f08c379a00000000000000000000000000000000000000000000000000000000081526004016121d89061438a565b60405180910390fd5b806006600084815260200190815260200160002090816122019190614556565b505050565b85600c60008973ffffffffffffffffffffffffffffffffffffffff1673ffffffffffffffffffffffffffffffffffffffff1681526020019081526020016000206000018190555084600c60008973ffffffffffffffffffffffffffffffffffffffff1673ffffffffffffffffffffffffffffffffffffffff168152602001908152602001600020600101908161229c9190614556565b5083600c60008973ffffffffffffffffffffffffffffffffffffffff1673ffffffffffffffffffffffffffffffffffffffff16815260200190815260200160002060020190816122ec9190614556565b5082600c60008973ffffffffffffffffffffffffffffffffffffffff1673ffffffffffffffffffffffffffffffffffffffff168152602001908152602001600020600301908161233c9190614556565b5081600c60008973ffffffffffffffffffffffffffffffffffffffff1673ffffffffffffffffffffffffffffffffffffffff168152602001908152602001600020600401908161238c9190614556565b5080600c60008973ffffffffffffffffffffffffffffffffffffffff1673ffffffffffffffffffffffffffffffffffffffff1681526020019081526020016000206006018190555050505050505050565b85600b60008881526020019081526020016000206000018190555084600b6000888152602001908152602001600020600101908161241b9190614556565b5083600b6000888152602001908152602001600020600201908161243f9190614556565b5082600b600088815260200190815260200160002060030190816124639190614556565b5081600b600088815260200190815260200160002060040190816124879190614556565b5080600b600088815260200190815260200160002060060181905550505050505050565b60006002600083815260200190815260200160002060009054906101000a900473ffffffffffffffffffffffffffffffffffffffff169050919050565b6000600760009054906101000a900473ffffffffffffffffffffffffffffffffffffffff16905081600760006101000a81548173ffffffffffffffffffffffffffffffffffffffff021916908373ffffffffffffffffffffffffffffffffffffffff1602179055508173ffffffffffffffffffffffffffffffffffffffff168173ffffffffffffffffffffffffffffffffffffffff167f8be0079c531659141344cd1fd0a4f28419497f9722a3daafe3b4186f6b6457e060405160405180910390a35050565b8173ffffffffffffffffffffffffffffffffffffffff168373ffffffffffffffffffffffffffffffffffffffff160361261c576040517f08c379a000000000000000000000000000000000000000000000000000000000815260040161261390614674565b60405180910390fd5b80600560008573ffffffffffffffffffffffffffffffffffffffff1673ffffffffffffffffffffffffffffffffffffffff16815260200190815260200160002060008473ffffffffffffffffffffffffffffffffffffffff1673ffffffffffffffffffffffffffffffffffffffff16815260200190815260200160002060006101000a81548160ff0219169083151502179055508173ffffffffffffffffffffffffffffffffffffffff168373ffffffffffffffffffffffffffffffffffffffff167f17307eab39ab6107e8899845ad3d59bd9653f200f220920489ca2b5937696c318360405161270d919061311f565b60405180910390a3505050565b612725848484611de0565b612731848484846129ab565b612770576040517f08c379a000000000000000000000000000000000000000000000000000000000815260040161276790614706565b60405180910390fd5b50505050565b606061278182611c3f565b60006006600084815260200190815260200160002080546127a190613b3c565b80601f01602080910402602001604051908101604052809291908181526020018280546127cd90613b3c565b801561281a5780601f106127ef5761010080835404028352916020019161281a565b820191906000526020600020905b8154815290600101906020018083116127fd57829003601f168201915b50505050509050600061282b612b32565b90506000815103612840578192505050612883565b60008251111561287557808260405160200161285d929190614726565b60405160208183030381529060405292505050612883565b61287e84612b49565b925050505b919050565b60008073ffffffffffffffffffffffffffffffffffffffff166128aa836124ab565b73ffffffffffffffffffffffffffffffffffffffff1614159050919050565b600073ffffffffffffffffffffffffffffffffffffffff168473ffffffffffffffffffffffffffffffffffffffff1614612938576040517f08c379a000000000000000000000000000000000000000000000000000000000815260040161292f906147bc565b60405180910390fd5b61294484848484612bb1565b50505050565b50505050565b61295a8383612bb7565b61296760008484846129ab565b6129a6576040517f08c379a000000000000000000000000000000000000000000000000000000000815260040161299d90614706565b60405180910390fd5b505050565b60006129cc8473ffffffffffffffffffffffffffffffffffffffff16612dd4565b15612b25578373ffffffffffffffffffffffffffffffffffffffff1663150b7a026129f5611c8a565b8786866040518563ffffffff1660e01b8152600401612a179493929190614831565b6020604051808303816000875af1925050508015612a5357506040513d601f19601f82011682018060405250810190612a509190614892565b60015b612ad5573d8060008114612a83576040519150601f19603f3d011682016040523d82523d6000602084013e612a88565b606091505b506000815103612acd576040517f08c379a0000000000000000000000000000000000000000000000000000000008152600401612ac490614706565b60405180910390fd5b805181602001fd5b63150b7a0260e01b7bffffffffffffffffffffffffffffffffffffffffffffffffffffffff1916817bffffffffffffffffffffffffffffffffffffffffffffffffffffffff191614915050612b2a565b600190505b949350505050565b606060405180602001604052806000815250905090565b6060612b5482611c3f565b6000612b5e612b32565b90506000815111612b7e5760405180602001604052806000815250612ba9565b80612b8884612df7565b604051602001612b99929190614726565b6040516020818303038152906040525b915050919050565b50505050565b600073ffffffffffffffffffffffffffffffffffffffff168273ffffffffffffffffffffffffffffffffffffffff1603612c26576040517f08c379a0000000000000000000000000000000000000000000000000000000008152600401612c1d9061490b565b60405180910390fd5b612c2f81612888565b15612c6f576040517f08c379a0000000000000000000000000000000000000000000000000000000008152600401612c6690614977565b60405180910390fd5b612c7d6000838360016128c9565b612c8681612888565b15612cc6576040517f08c379a0000000000000000000000000000000000000000000000000000000008152600401612cbd90614977565b60405180910390fd5b6001600360008473ffffffffffffffffffffffffffffffffffffffff1673ffffffffffffffffffffffffffffffffffffffff16815260200190815260200160002060008282540192505081905550816002600083815260200190815260200160002060006101000a81548173ffffffffffffffffffffffffffffffffffffffff021916908373ffffffffffffffffffffffffffffffffffffffff160217905550808273ffffffffffffffffffffffffffffffffffffffff16600073ffffffffffffffffffffffffffffffffffffffff167fddf252ad1be2c89b69c2b068fc378daa952ba7f163c4a11628f55a4df523b3ef60405160405180910390a4612dd060008383600161294a565b5050565b6000808273ffffffffffffffffffffffffffffffffffffffff163b119050919050565b606060006001612e0684612ec5565b01905060008167ffffffffffffffff811115612e2557612e2461339e565b5b6040519080825280601f01601f191660200182016040528015612e575781602001600182028036833780820191505090505b509050600082602001820190505b600115612eba578080600190039150507f3031323334353637383961626364656600000000000000000000000000000000600a86061a8153600a8581612eae57612ead614997565b5b04945060008503612e65575b819350505050919050565b600080600090507a184f03e93ff9f4daa797ed6e38ed64bf6a1f0100000000000000008310612f23577a184f03e93ff9f4daa797ed6e38ed64bf6a1f0100000000000000008381612f1957612f18614997565b5b0492506040810190505b6d04ee2d6d415b85acef81000000008310612f60576d04ee2d6d415b85acef81000000008381612f5657612f55614997565b5b0492506020810190505b662386f26fc100008310612f8f57662386f26fc100008381612f8557612f84614997565b5b0492506010810190505b6305f5e1008310612fb8576305f5e1008381612fae57612fad614997565b5b0492506008810190505b6127108310612fdd576127108381612fd357612fd2614997565b5b0492506004810190505b606483106130005760648381612ff657612ff5614997565b5b0492506002810190505b600a831061300f576001810190505b80915050919050565b6040518060e001604052806000815260200160608152602001606081526020016060815260200160608152602001600073ffffffffffffffffffffffffffffffffffffffff168152602001600081525090565b6000604051905090565b600080fd5b600080fd5b60007fffffffff0000000000000000000000000000000000000000000000000000000082169050919050565b6130b48161307f565b81146130bf57600080fd5b50565b6000813590506130d1816130ab565b92915050565b6000602082840312156130ed576130ec613075565b5b60006130fb848285016130c2565b91505092915050565b60008115159050919050565b61311981613104565b82525050565b60006020820190506131346000830184613110565b92915050565b600081519050919050565b600082825260208201905092915050565b60005b83811015613174578082015181840152602081019050613159565b60008484015250505050565b6000601f19601f8301169050919050565b600061319c8261313a565b6131a68185613145565b93506131b6818560208601613156565b6131bf81613180565b840191505092915050565b600060208201905081810360008301526131e48184613191565b905092915050565b6000819050919050565b6131ff816131ec565b811461320a57600080fd5b50565b60008135905061321c816131f6565b92915050565b60006020828403121561323857613237613075565b5b60006132468482850161320d565b91505092915050565b600073ffffffffffffffffffffffffffffffffffffffff82169050919050565b600061327a8261324f565b9050919050565b61328a8161326f565b82525050565b60006020820190506132a56000830184613281565b92915050565b6132b48161326f565b81146132bf57600080fd5b50565b6000813590506132d1816132ab565b92915050565b600080604083850312156132ee576132ed613075565b5b60006132fc858286016132c2565b925050602061330d8582860161320d565b9150509250929050565b613320816131ec565b82525050565b600060208201905061333b6000830184613317565b92915050565b60008060006060848603121561335a57613359613075565b5b6000613368868287016132c2565b9350506020613379868287016132c2565b925050604061338a8682870161320d565b9150509250925092565b600080fd5b600080fd5b7f4e487b7100000000000000000000000000000000000000000000000000000000600052604160045260246000fd5b6133d682613180565b810181811067ffffffffffffffff821117156133f5576133f461339e565b5b80604052505050565b600061340861306b565b905061341482826133cd565b919050565b600067ffffffffffffffff8211156134345761343361339e565b5b61343d82613180565b9050602081019050919050565b82818337600083830152505050565b600061346c61346784613419565b6133fe565b90508281526020810184848401111561348857613487613399565b5b61349384828561344a565b509392505050565b600082601f8301126134b0576134af613394565b5b81356134c0848260208601613459565b91505092915050565b6000602082840312156134df576134de613075565b5b600082013567ffffffffffffffff8111156134fd576134fc61307a565b5b6135098482850161349b565b91505092915050565b600080600080600080600060e0888a03121561353157613530613075565b5b600061353f8a828b016132c2565b975050602088013567ffffffffffffffff8111156135605761355f61307a565b5b61356c8a828b0161349b565b965050604088013567ffffffffffffffff81111561358d5761358c61307a565b5b6135998a828b0161349b565b955050606088013567ffffffffffffffff8111156135ba576135b961307a565b5b6135c68a828b0161349b565b945050608088013567ffffffffffffffff8111156135e7576135e661307a565b5b6135f38a828b0161349b565b93505060a088013567ffffffffffffffff8111156136145761361361307a565b5b6136208a828b0161349b565b92505060c06136318a828b0161320d565b91505092959891949750929550565b600081519050919050565b600082825260208201905092915050565b6000819050602082019050919050565b613675816131ec565b82525050565b600082825260208201905092915050565b60006136978261313a565b6136a1818561367b565b93506136b1818560208601613156565b6136ba81613180565b840191505092915050565b6136ce8161326f565b82525050565b600060e0830160008301516136ec600086018261366c565b5060208301518482036020860152613704828261368c565b9150506040830151848203604086015261371e828261368c565b91505060608301518482036060860152613738828261368c565b91505060808301518482036080860152613752828261368c565b91505060a083015161376760a08601826136c5565b5060c083015161377a60c086018261366c565b508091505092915050565b600061379183836136d4565b905092915050565b6000602082019050919050565b60006137b182613640565b6137bb818561364b565b9350836020820285016137cd8561365c565b8060005b8581101561380957848403895281516137ea8582613785565b94506137f583613799565b925060208a019950506001810190506137d1565b50829750879550505050505092915050565b6000602082019050818103600083015261383581846137a6565b905092915050565b60006020828403121561385357613852613075565b5b6000613861848285016132c2565b91505092915050565b61387381613104565b811461387e57600080fd5b50565b6000813590506138908161386a565b92915050565b600080604083850312156138ad576138ac613075565b5b60006138bb858286016132c2565b92505060206138cc85828601613881565b9150509250929050565b600067ffffffffffffffff8211156138f1576138f061339e565b5b6138fa82613180565b9050602081019050919050565b600061391a613915846138d6565b6133fe565b90508281526020810184848401111561393657613935613399565b5b61394184828561344a565b509392505050565b600082601f83011261395e5761395d613394565b5b813561396e848260208601613907565b91505092915050565b6000806000806080858703121561399157613990613075565b5b600061399f878288016132c2565b94505060206139b0878288016132c2565b93505060406139c18782880161320d565b925050606085013567ffffffffffffffff8111156139e2576139e161307a565b5b6139ee87828801613949565b91505092959194509250565b600060e083016000830151613a12600086018261366c565b5060208301518482036020860152613a2a828261368c565b91505060408301518482036040860152613a44828261368c565b91505060608301518482036060860152613a5e828261368c565b91505060808301518482036080860152613a78828261368c565b91505060a0830151613a8d60a08601826136c5565b5060c0830151613aa060c086018261366c565b508091505092915050565b60006020820190508181036000830152613ac581846139fa565b905092915050565b60008060408385031215613ae457613ae3613075565b5b6000613af2858286016132c2565b9250506020613b03858286016132c2565b9150509250929050565b7f4e487b7100000000000000000000000000000000000000000000000000000000600052602260045260246000fd5b60006002820490506001821680613b5457607f821691505b602082108103613b6757613b66613b0d565b5b50919050565b7f4552433732313a20617070726f76616c20746f2063757272656e74206f776e6560008201527f7200000000000000000000000000000000000000000000000000000000000000602082015250565b6000613bc9602183613145565b9150613bd482613b6d565b604082019050919050565b60006020820190508181036000830152613bf881613bbc565b9050919050565b7f4552433732313a20617070726f76652063616c6c6572206973206e6f7420746f60008201527f6b656e206f776e6572206f7220617070726f76656420666f7220616c6c000000602082015250565b6000613c5b603d83613145565b9150613c6682613bff565b604082019050919050565b60006020820190508181036000830152613c8a81613c4e565b9050919050565b7f4552433732313a2063616c6c6572206973206e6f7420746f6b656e206f776e6560008201527f72206f7220617070726f76656400000000000000000000000000000000000000602082015250565b6000613ced602d83613145565b9150613cf882613c91565b604082019050919050565b60006020820190508181036000830152613d1c81613ce0565b9050919050565b600081905092915050565b6000613d398261313a565b613d438185613d23565b9350613d53818560208601613156565b80840191505092915050565b6000613d6b8284613d2e565b915081905092915050565b7f546f6b656e2055524920616c7265616479206578697374730000000000000000600082015250565b6000613dac601883613145565b9150613db782613d76565b602082019050919050565b60006020820190508181036000830152613ddb81613d9f565b9050919050565b7f596f7520617265206e6f7420617574686f72697a656420746f206d696e74206160008201527f20416164686161722d4e46540000000000000000000000000000000000000000602082015250565b6000613e3e602c83613145565b9150613e4982613de2565b604082019050919050565b60006020820190508181036000830152613e6d81613e31565b9050919050565b7f4e487b7100000000000000000000000000000000000000000000000000000000600052601160045260246000fd5b6000613eae826131ec565b91507fffffffffffffffffffffffffffffffffffffffffffffffffffffffffffffffff8203613ee057613edf613e74565b5b600182019050919050565b60006060820190508181036000830152613f058186613191565b9050613f146020830185613281565b613f216040830184613317565b949350505050565b7f496e646578206f7574206f6620626f756e647300000000000000000000000000600082015250565b6000613f5f601383613145565b9150613f6a82613f29565b602082019050919050565b60006020820190508181036000830152613f8e81613f52565b9050919050565b7f4e487b7100000000000000000000000000000000000000000000000000000000600052603260045260246000fd5b6000613fcf826131ec565b9150613fda836131ec565b9250828201905080821115613ff257613ff1613e74565b5b92915050565b7f4552433732313a20696e76616c696420746f6b656e2049440000000000000000600082015250565b600061402e601883613145565b915061403982613ff8565b602082019050919050565b6000602082019050818103600083015261405d81614021565b9050919050565b7f4552433732313a2061646472657373207a65726f206973206e6f74206120766160008201527f6c6964206f776e65720000000000000000000000000000000000000000000000602082015250565b60006140c0602983613145565b91506140cb82614064565b604082019050919050565b600060208201905081810360008301526140ef816140b3565b9050919050565b7f4f776e61626c653a206e6577206f776e657220697320746865207a65726f206160008201527f6464726573730000000000000000000000000000000000000000000000000000602082015250565b6000614152602683613145565b915061415d826140f6565b604082019050919050565b6000602082019050818103600083015261418181614145565b9050919050565b7f4552433732313a207472616e736665722066726f6d20696e636f72726563742060008201527f6f776e6572000000000000000000000000000000000000000000000000000000602082015250565b60006141e4602583613145565b91506141ef82614188565b604082019050919050565b60006020820190508181036000830152614213816141d7565b9050919050565b7f4552433732313a207472616e7366657220746f20746865207a65726f2061646460008201527f7265737300000000000000000000000000000000000000000000000000000000602082015250565b6000614276602483613145565b91506142818261421a565b604082019050919050565b600060208201905081810360008301526142a581614269565b9050919050565b7f4f776e61626c653a2063616c6c6572206973206e6f7420746865206f776e6572600082015250565b60006142e2602083613145565b91506142ed826142ac565b602082019050919050565b60006020820190508181036000830152614311816142d5565b9050919050565b7f45524337323155524953746f726167653a2055524920736574206f66206e6f6e60008201527f6578697374656e7420746f6b656e000000000000000000000000000000000000602082015250565b6000614374602e83613145565b915061437f82614318565b604082019050919050565b600060208201905081810360008301526143a381614367565b9050919050565b60008190508160005260206000209050919050565b60006020601f8301049050919050565b600082821b905092915050565b60006008830261440c7fffffffffffffffffffffffffffffffffffffffffffffffffffffffffffffffff826143cf565b61441686836143cf565b95508019841693508086168417925050509392505050565b6000819050919050565b600061445361444e614449846131ec565b61442e565b6131ec565b9050919050565b6000819050919050565b61446d83614438565b6144816144798261445a565b8484546143dc565b825550505050565b600090565b614496614489565b6144a1818484614464565b505050565b5b818110156144c5576144ba60008261448e565b6001810190506144a7565b5050565b601f82111561450a576144db816143aa565b6144e4846143bf565b810160208510156144f3578190505b6145076144ff856143bf565b8301826144a6565b50505b505050565b600082821c905092915050565b600061452d6000198460080261450f565b1980831691505092915050565b6000614546838361451c565b9150826002028217905092915050565b61455f8261313a565b67ffffffffffffffff8111156145785761457761339e565b5b6145828254613b3c565b61458d8282856144c9565b600060209050601f8311600181146145c057600084156145ae578287015190505b6145b8858261453a565b865550614620565b601f1984166145ce866143aa565b60005b828110156145f6578489015182556001820191506020850194506020810190506145d1565b86831015614613578489015161460f601f89168261451c565b8355505b6001600288020188555050505b505050505050565b7f4552433732313a20617070726f766520746f2063616c6c657200000000000000600082015250565b600061465e601983613145565b915061466982614628565b602082019050919050565b6000602082019050818103600083015261468d81614651565b9050919050565b7f4552433732313a207472616e7366657220746f206e6f6e20455243373231526560008201527f63656976657220696d706c656d656e7465720000000000000000000000000000602082015250565b60006146f0603283613145565b91506146fb82614694565b604082019050919050565b6000602082019050818103600083015261471f816146e3565b9050919050565b60006147328285613d2e565b915061473e8284613d2e565b91508190509392505050565b7f596f752043616e74205472616e7366657220596f75722041616468616172204e60008201527f4654000000000000000000000000000000000000000000000000000000000000602082015250565b60006147a6602283613145565b91506147b18261474a565b604082019050919050565b600060208201905081810360008301526147d581614799565b9050919050565b600081519050919050565b600082825260208201905092915050565b6000614803826147dc565b61480d81856147e7565b935061481d818560208601613156565b61482681613180565b840191505092915050565b60006080820190506148466000830187613281565b6148536020830186613281565b6148606040830185613317565b818103606083015261487281846147f8565b905095945050505050565b60008151905061488c816130ab565b92915050565b6000602082840312156148a8576148a7613075565b5b60006148b68482850161487d565b91505092915050565b7f4552433732313a206d696e7420746f20746865207a65726f2061646472657373600082015250565b60006148f5602083613145565b9150614900826148bf565b602082019050919050565b60006020820190508181036000830152614924816148e8565b9050919050565b7f4552433732313a20746f6b656e20616c7265616479206d696e74656400000000600082015250565b6000614961601c83613145565b915061496c8261492b565b602082019050919050565b6000602082019050818103600083015261499081614954565b9050919050565b7f4e487b7100000000000000000000000000000000000000000000000000000000600052601260045260246000fdfea2646970667358221220a0eb4260252d340b6039bba1e882e8f1de7c9c0be614fcefc4621e183dbafb3364736f6c63430008130033",
  "immutableReferences": {},
  "source": "// SPDX-License-Identifier: MIT\r\npragma solidity ^0.8.9;\r\n\r\nimport \"@openzeppelin/contracts/token/ERC721/ERC721.sol\";\r\nimport \"@openzeppelin/contracts/token/ERC721/extensions/ERC721URIStorage.sol\";\r\nimport \"@openzeppelin/contracts/access/Ownable.sol\";\r\nimport \"@openzeppelin/contracts/utils/Counters.sol\";\r\nimport \"@chainlink/contracts/src/v0.8/VRFV2WrapperConsumerBase.sol\";\r\n\r\ncontract Aadhaar is ERC721, ERC721URIStorage, Ownable {\r\n\r\n    constructor() ERC721(\"Aadhaar\", \"UIDAI\") {\r\n        firstMinter[msg.sender]=true;\r\n    }\r\n\r\n    using Counters for Counters.Counter;\r\n\r\n    struct Aadhaar_Data {\r\n        uint256 tokenId;\r\n        string Name;\r\n        string DOB;\r\n        string Sex;\r\n        string Address;\r\n        address Web3_Address;\r\n        uint256 Aadhaar_NO;\r\n    }\r\n\r\n    Counters.Counter private _tokenIdCounter;\r\n    Counters.Counter private _createdAadhaar;\r\n\r\n    mapping(string => bool) private _usedTokenURIs;\r\n    mapping(uint256 => Aadhaar_Data) private token_Mapped_Aadhaar_Data;\r\n    mapping(address => Aadhaar_Data) private address_Mapped_Aadhaar_Data;\r\n    mapping(address => mapping(uint=>uint)) public creator_Mapped_Token;\r\n    mapping(address => uint) public count_Of_Created_Nfts;\r\n    mapping(address => bool) private authorizedMinters;\r\n    mapping(address => bool) private firstMinter;\r\n\r\n    uint256[] private _allNfts;\r\n\r\n    function totalSupply() public view returns (uint) {\r\n        return _allNfts.length;\r\n    }\r\n\r\n    function tokenByIndex(uint index) public view returns (uint) {\r\n        require(index < totalSupply(), \"Index out of bounds\");\r\n        return _allNfts[index];\r\n    }\r\n\r\n    function tokenURIExists(string memory uri) public view returns (bool) {\r\n        return _usedTokenURIs[uri] == true;\r\n    }\r\n\r\n    function getAadhaar(uint tokenId) public view returns (Aadhaar_Data memory) {\r\n        return token_Mapped_Aadhaar_Data[tokenId];\r\n    }\r\n\r\n    function createdAadhaarCount() public view returns (uint) {\r\n        return _createdAadhaar.current();\r\n    }\r\n\r\n    function tokenOfCreatorByIndex(address creator, uint index) public view returns (uint) {\r\n        return creator_Mapped_Token[creator][index];\r\n    }\r\n\r\n//    function addAuthorizedMinter(address authorizedMinter) private {\r\n//        require(firstMinter(msg.sender)==true);\r\n//        authorizedMinters[authorizedMinter]=true;\r\n//\r\n//    }\r\n\r\n    function mapDataToTokenId(uint256 tokenId,string memory Name,string memory DOB,string memory Sex,string memory Address,uint256 Aadhaar_NO) private\r\n    {\r\n\r\n        token_Mapped_Aadhaar_Data[tokenId].tokenId=tokenId;\r\n        token_Mapped_Aadhaar_Data[tokenId].Name=Name;\r\n        token_Mapped_Aadhaar_Data[tokenId].DOB=DOB;\r\n        token_Mapped_Aadhaar_Data[tokenId].Sex=Sex;\r\n        token_Mapped_Aadhaar_Data[tokenId].Address=Address;\r\n        token_Mapped_Aadhaar_Data[tokenId].Aadhaar_NO=Aadhaar_NO;\r\n\r\n    }\r\n\r\n    function mapDataToAddress(address person,uint256 tokenId,string memory Name,string memory DOB,string memory Sex,string memory Address,uint256 Aadhaar_NO) private\r\n    {\r\n\r\n        address_Mapped_Aadhaar_Data[person].tokenId=tokenId;\r\n        address_Mapped_Aadhaar_Data[person].Name=Name;\r\n        address_Mapped_Aadhaar_Data[person].DOB=DOB;\r\n        address_Mapped_Aadhaar_Data[person].Sex=Sex;\r\n        address_Mapped_Aadhaar_Data[person].Address=Address;\r\n        address_Mapped_Aadhaar_Data[person].Aadhaar_NO=Aadhaar_NO;\r\n\r\n    }\r\n\r\n    event Aadhaar_Created(\r\n        uint256 indexed tokenId,\r\n        string Name,\r\n        address Owner,\r\n        uint256 Addhaar_NO\r\n    );\r\n\r\n    function safeMint(address to, string memory uri,string memory Name,string memory DOB,string memory Sex,string memory Address,uint256 Aadhaar_NO) public onlyOwner {\r\n        require(!tokenURIExists(uri), \"Token URI already exists\");\r\n        require(firstMinter[msg.sender],\"You are not authorized to mint a Aadhaar-NFT\");\r\n        uint256 tokenId = _tokenIdCounter.current();\r\n        _tokenIdCounter.increment();\r\n        _createdAadhaar.increment();\r\n        _safeMint(to, tokenId);\r\n        _setTokenURI(tokenId, uri);\r\n        _usedTokenURIs[uri] = true;\r\n        mapDataToAddress(to, tokenId, Name, DOB, Sex, Address, Aadhaar_NO);\r\n        address_Mapped_Aadhaar_Data[to].Web3_Address=to;\r\n        mapDataToTokenId(tokenId, Name, DOB, Sex, Address, Aadhaar_NO);\r\n        token_Mapped_Aadhaar_Data[tokenId].Web3_Address=to;\r\n        _allNfts.push(tokenId);\r\n        count_Of_Created_Nfts[msg.sender]++;\r\n        creator_Mapped_Token[msg.sender][count_Of_Created_Nfts[msg.sender]]=tokenId;\r\n        emit Aadhaar_Created(tokenId,Name,to,Aadhaar_NO);\r\n    }\r\n\r\n    function getAllAadhaarNfts() public view returns (Aadhaar_Data[] memory) {\r\n        uint allItemsCounts = totalSupply();\r\n        uint currentIndex = 0;\r\n        Aadhaar_Data[] memory items = new Aadhaar_Data[](_createdAadhaar.current());\r\n\r\n        for (uint i = 0; i < allItemsCounts; i++) {\r\n            uint tokenId = tokenByIndex(i);\r\n            Aadhaar_Data storage item = token_Mapped_Aadhaar_Data[tokenId];\r\n\r\n                items[currentIndex] = item;\r\n                currentIndex += 1;\r\n        }\r\n\r\n        return items;\r\n    }\r\n\r\n    function getCreatedNfts() public view returns (Aadhaar_Data[] memory) {\r\n        uint createdItemsCount = count_Of_Created_Nfts[msg.sender];\r\n        Aadhaar_Data[] memory items = new Aadhaar_Data[](createdItemsCount);\r\n\r\n        for (uint i = 0; i < createdItemsCount; i++) {\r\n            uint tokenId = tokenOfCreatorByIndex(msg.sender, i);\r\n            Aadhaar_Data storage item = token_Mapped_Aadhaar_Data[tokenId];\r\n            items[i] = item;\r\n        }\r\n\r\n        return items;\r\n    }\r\n\r\n    function _beforeTokenTransfer(\r\n        address from,\r\n        address to,\r\n        uint256 tokenId ,\r\n        uint256 batchSize\r\n    ) internal override virtual {\r\n        require(from==address(0),\"You Cant Transfer Your Aadhaar NFT\");\r\n        super._beforeTokenTransfer(from, to, tokenId,batchSize);\r\n    }\r\n\r\n    function _afterTokenTransfer(\r\n        address from,\r\n        address to,\r\n        uint256 tokenId,\r\n        uint256 batchSize\r\n    ) internal override virtual {}\r\n\r\n\r\n    function _burn(uint256 tokenId) internal override(ERC721, ERC721URIStorage) {\r\n        super._burn(tokenId);\r\n    }\r\n\r\n    function tokenURI(uint256 tokenId)\r\n    public\r\n    view\r\n    override(ERC721, ERC721URIStorage)\r\n    returns (string memory)\r\n    {\r\n        return super.tokenURI(tokenId);\r\n    }\r\n\r\n\r\n    //Random No.\r\n\r\n//    event RequestSent(uint256 requestId, uint32 numWords);\r\n//    event RequestFulfilled(\r\n//        uint256 requestId,\r\n//        uint256[] randomWords,\r\n//        uint256 payment\r\n//    );\r\n//\r\n//    struct RequestStatus {\r\n//        uint256 paid;\r\n//        bool fulfilled;\r\n//        uint256[] randomWords;\r\n//    }\r\n//    mapping(uint256 => RequestStatus)\r\n//    public s_requests;\r\n//\r\n//\r\n//    uint256[] public requestIds;\r\n//    uint256 public lastRequestId;\r\n//\r\n//    uint32 callbackGasLimit = 100000;\r\n//\r\n//    uint16 requestConfirmations = 3;\r\n//\r\n//    uint32 numWords = 2;\r\n//\r\n//    address linkAddress = 0x326C977E6efc84E512bB9C30f76E30c160eD06FB;\r\n//\r\n//    address wrapperAddress = 0x99aFAf084eBA697E584501b8Ed2c0B37Dd136693;\r\n//\r\n//\r\n//    function requestRandomWords()\r\n//    external\r\n//    onlyOwner\r\n//    returns (uint256 requestId)\r\n//    {\r\n//        requestId = requestRandomness(\r\n//            callbackGasLimit,\r\n//            requestConfirmations,\r\n//            numWords\r\n//        );\r\n//        s_requests[requestId] = RequestStatus({\r\n//        paid: VRF_V2_WRAPPER.calculateRequestPrice(callbackGasLimit),\r\n//        randomWords: new uint256[](0),\r\n//        fulfilled: false\r\n//        });\r\n//        requestIds.push(requestId);\r\n//        lastRequestId = requestId;\r\n//        emit RequestSent(requestId, numWords);\r\n//        return requestId;\r\n//    }\r\n//\r\n//    function fulfillRandomWords(\r\n//        uint256 _requestId,\r\n//        uint256[] memory _randomWords\r\n//    ) internal override {\r\n//        require(s_requests[_requestId].paid > 0, \"request not found\");\r\n//        s_requests[_requestId].fulfilled = true;\r\n//        s_requests[_requestId].randomWords = _randomWords;\r\n//\r\n//        emit RequestFulfilled(\r\n//            _requestId,\r\n//            _randomWords,\r\n//            s_requests[_requestId].paid\r\n//        );\r\n//    }\r\n//\r\n//    function getRequestStatus(\r\n//        uint256 _requestId\r\n//    )\r\n//    external\r\n//    view\r\n//    returns (uint256 paid, bool fulfilled, uint256[] memory randomWords)\r\n//    {\r\n//        require(s_requests[_requestId].paid > 0, \"request not found\");\r\n//        RequestStatus memory request = s_requests[_requestId];\r\n//        return (request.paid, request.fulfilled, request.randomWords);\r\n//    }\r\n//\r\n//    function withdrawLink() public onlyOwner {\r\n//        LinkTokenInterface link = LinkTokenInterface(linkAddress);\r\n//        require(\r\n//            link.transfer(msg.sender, link.balanceOf(address(this))),\r\n//            \"Unable to transfer\"\r\n//        );\r\n//    }\r\n\r\n\r\n}\r\n",
  "sourcePath": "C:\\Users\\Aayush\\aadhaar_project\\contracts\\Aadhaar.sol",
  "compiler": {
    "name": "solc",
    "version": "0.8.19+commit.7dd6d404.Emscripten.clang"
  },
  "schemaVersion": "3.4.13",
  "updatedAt": "2023-05-14T10:05:43.140Z",
  "networkType": "ethereum",
  "devdoc": {
    "events": {
      "Approval(address,address,uint256)": {
        "details": "Emitted when `owner` enables `approved` to manage the `tokenId` token."
      },
      "ApprovalForAll(address,address,bool)": {
        "details": "Emitted when `owner` enables or disables (`approved`) `operator` to manage all of its assets."
      },
      "Transfer(address,address,uint256)": {
        "details": "Emitted when `tokenId` token is transferred from `from` to `to`."
      }
    },
    "kind": "dev",
    "methods": {
      "approve(address,uint256)": {
        "details": "See {IERC721-approve}."
      },
      "balanceOf(address)": {
        "details": "See {IERC721-balanceOf}."
      },
      "getApproved(uint256)": {
        "details": "See {IERC721-getApproved}."
      },
      "isApprovedForAll(address,address)": {
        "details": "See {IERC721-isApprovedForAll}."
      },
      "name()": {
        "details": "See {IERC721Metadata-name}."
      },
      "owner()": {
        "details": "Returns the address of the current owner."
      },
      "ownerOf(uint256)": {
        "details": "See {IERC721-ownerOf}."
      },
      "renounceOwnership()": {
        "details": "Leaves the contract without owner. It will not be possible to call `onlyOwner` functions anymore. Can only be called by the current owner. NOTE: Renouncing ownership will leave the contract without an owner, thereby removing any functionality that is only available to the owner."
      },
      "safeTransferFrom(address,address,uint256)": {
        "details": "See {IERC721-safeTransferFrom}."
      },
      "safeTransferFrom(address,address,uint256,bytes)": {
        "details": "See {IERC721-safeTransferFrom}."
      },
      "setApprovalForAll(address,bool)": {
        "details": "See {IERC721-setApprovalForAll}."
      },
      "supportsInterface(bytes4)": {
        "details": "See {IERC165-supportsInterface}."
      },
      "symbol()": {
        "details": "See {IERC721Metadata-symbol}."
      },
      "transferFrom(address,address,uint256)": {
        "details": "See {IERC721-transferFrom}."
      },
      "transferOwnership(address)": {
        "details": "Transfers ownership of the contract to a new account (`newOwner`). Can only be called by the current owner."
      }
    },
    "version": 1
  },
  "userdoc": {
    "kind": "user",
    "methods": {},
    "version": 1
  }
}